{
  "contractName": "DonationBlock",
  "abi": [
    {
      "anonymous": false,
      "inputs": [
        {
          "indexed": true,
          "name": "donationAddress",
          "type": "address"
        },
        {
          "indexed": false,
          "name": "index",
          "type": "uint256"
        },
        {
          "indexed": false,
          "name": "dimension",
          "type": "bytes32"
        },
        {
          "indexed": false,
          "name": "metric",
          "type": "uint256"
        }
      ],
      "name": "LogNewDonation",
      "type": "event"
    },
    {
      "anonymous": false,
      "inputs": [
        {
          "indexed": true,
          "name": "donationAddress",
          "type": "address"
        },
        {
          "indexed": false,
          "name": "index",
          "type": "uint256"
        },
        {
          "indexed": false,
          "name": "dimension",
          "type": "bytes32"
        },
        {
          "indexed": false,
          "name": "metric",
          "type": "uint256"
        }
      ],
      "name": "LogUpdateDonation",
      "type": "event"
    },
    {
      "constant": true,
      "inputs": [
        {
          "name": "donationAddress",
          "type": "address"
        }
      ],
      "name": "isDonation",
      "outputs": [
        {
          "name": "isIndeed",
          "type": "bool"
        }
      ],
      "payable": false,
      "stateMutability": "view",
      "type": "function"
    },
    {
      "constant": false,
      "inputs": [
        {
          "name": "donationAddress",
          "type": "address"
        },
        {
          "name": "dimension",
          "type": "bytes32"
        },
        {
          "name": "metric",
          "type": "uint256"
        }
      ],
      "name": "insertDonation",
      "outputs": [
        {
          "name": "index",
          "type": "uint256"
        }
      ],
      "payable": false,
      "stateMutability": "nonpayable",
      "type": "function"
    },
    {
      "constant": true,
      "inputs": [
        {
          "name": "donationAddress",
          "type": "address"
        }
      ],
      "name": "getDonation",
      "outputs": [
        {
          "name": "dimension",
          "type": "bytes32"
        },
        {
          "name": "metric",
          "type": "uint256"
        },
        {
          "name": "index",
          "type": "uint256"
        }
      ],
      "payable": false,
      "stateMutability": "view",
      "type": "function"
    },
    {
      "constant": false,
      "inputs": [
        {
          "name": "donationAddress",
          "type": "address"
        },
        {
          "name": "dimension",
          "type": "bytes32"
        }
      ],
      "name": "updateDimension",
      "outputs": [
        {
          "name": "success",
          "type": "bool"
        }
      ],
      "payable": false,
      "stateMutability": "nonpayable",
      "type": "function"
    },
    {
      "constant": false,
      "inputs": [
        {
          "name": "donationAddress",
          "type": "address"
        },
        {
          "name": "metric",
          "type": "uint256"
        }
      ],
      "name": "updateMetric",
      "outputs": [
        {
          "name": "success",
          "type": "bool"
        }
      ],
      "payable": false,
      "stateMutability": "nonpayable",
      "type": "function"
    },
    {
      "constant": true,
      "inputs": [],
      "name": "getUserCount",
      "outputs": [
        {
          "name": "count",
          "type": "uint256"
        }
      ],
      "payable": false,
      "stateMutability": "view",
      "type": "function"
    },
    {
      "constant": true,
      "inputs": [
        {
          "name": "index",
          "type": "uint256"
        }
      ],
      "name": "getUserAtIndex",
      "outputs": [
        {
          "name": "donationAddress",
          "type": "address"
        }
      ],
      "payable": false,
      "stateMutability": "view",
      "type": "function"
    }
  ],
  "bytecode": "0x608060405234801561001057600080fd5b50610a42806100206000396000f300608060405260043610610083576000357c0100000000000000000000000000000000000000000000000000000000900463ffffffff168063032203fa1461008857806312265a0d146100f7578063410a1d321461015257806356f52ab6146101bf578063b5cb15f714610228578063b6a1edb314610253578063ffcc7bbf146102b8575b600080fd5b34801561009457600080fd5b506100e1600480360381019080803573ffffffffffffffffffffffffffffffffffffffff169060200190929190803560001916906020019092919080359060200190929190505050610325565b6040518082815260200191505060405180910390f35b34801561010357600080fd5b50610138600480360381019080803573ffffffffffffffffffffffffffffffffffffffff16906020019092919050505061052e565b604051808215151515815260200191505060405180910390f35b34801561015e57600080fd5b50610193600480360381019080803573ffffffffffffffffffffffffffffffffffffffff1690602001909291905050506105f7565b604051808460001916600019168152602001838152602001828152602001935050505060405180910390f35b3480156101cb57600080fd5b5061020e600480360381019080803573ffffffffffffffffffffffffffffffffffffffff16906020019092919080356000191690602001909291905050506106e3565b604051808215151515815260200191505060405180910390f35b34801561023457600080fd5b5061023d610835565b6040518082815260200191505060405180910390f35b34801561025f57600080fd5b5061029e600480360381019080803573ffffffffffffffffffffffffffffffffffffffff16906020019092919080359060200190929190505050610842565b604051808215151515815260200191505060405180910390f35b3480156102c457600080fd5b506102e3600480360381019080803590602001909291905050506109d3565b604051808273ffffffffffffffffffffffffffffffffffffffff1673ffffffffffffffffffffffffffffffffffffffff16815260200191505060405180910390f35b60006103308461052e565b1561033a57600080fd5b826000808673ffffffffffffffffffffffffffffffffffffffff1673ffffffffffffffffffffffffffffffffffffffff1681526020019081526020016000206000018160001916905550816000808673ffffffffffffffffffffffffffffffffffffffff1673ffffffffffffffffffffffffffffffffffffffff168152602001908152602001600020600101819055506001808590806001815401808255809150509060018203906000526020600020016000909192909190916101000a81548173ffffffffffffffffffffffffffffffffffffffff021916908373ffffffffffffffffffffffffffffffffffffffff160217905550036000808673ffffffffffffffffffffffffffffffffffffffff1673ffffffffffffffffffffffffffffffffffffffff168152602001908152602001600020600201819055508373ffffffffffffffffffffffffffffffffffffffff167fc417cc08731e33e5809d9c4b09568b0739ea6bf872f2e30de538a34fc45952f26000808773ffffffffffffffffffffffffffffffffffffffff1673ffffffffffffffffffffffffffffffffffffffff168152602001908152602001600020600201548585604051808481526020018360001916600019168152602001828152602001935050505060405180910390a2600180805490500390509392505050565b600080600180549050141561054657600090506105f2565b8173ffffffffffffffffffffffffffffffffffffffff1660016000808573ffffffffffffffffffffffffffffffffffffffff1673ffffffffffffffffffffffffffffffffffffffff168152602001908152602001600020600201548154811015156105ad57fe5b9060005260206000200160009054906101000a900473ffffffffffffffffffffffffffffffffffffffff1673ffffffffffffffffffffffffffffffffffffffff161490505b919050565b60008060006106058461052e565b151561061057600080fd5b6000808573ffffffffffffffffffffffffffffffffffffffff1673ffffffffffffffffffffffffffffffffffffffff168152602001908152602001600020600001546000808673ffffffffffffffffffffffffffffffffffffffff1673ffffffffffffffffffffffffffffffffffffffff168152602001908152602001600020600101546000808773ffffffffffffffffffffffffffffffffffffffff1673ffffffffffffffffffffffffffffffffffffffff168152602001908152602001600020600201549250925092509193909250565b60006106ee8361052e565b15156106f957600080fd5b816000808573ffffffffffffffffffffffffffffffffffffffff1673ffffffffffffffffffffffffffffffffffffffff16815260200190815260200160002060000181600019169055508273ffffffffffffffffffffffffffffffffffffffff167f75659ad2e3922bc94fb4e117045aa7fd71209b0e0a616e4d5aaea549a084d4276000808673ffffffffffffffffffffffffffffffffffffffff1673ffffffffffffffffffffffffffffffffffffffff16815260200190815260200160002060020154846000808873ffffffffffffffffffffffffffffffffffffffff1673ffffffffffffffffffffffffffffffffffffffff16815260200190815260200160002060010154604051808481526020018360001916600019168152602001828152602001935050505060405180910390a26001905092915050565b6000600180549050905090565b600061084d8361052e565b151561085857600080fd5b816000808573ffffffffffffffffffffffffffffffffffffffff1673ffffffffffffffffffffffffffffffffffffffff16815260200190815260200160002060010154016000808573ffffffffffffffffffffffffffffffffffffffff1673ffffffffffffffffffffffffffffffffffffffff168152602001908152602001600020600101819055508273ffffffffffffffffffffffffffffffffffffffff167f75659ad2e3922bc94fb4e117045aa7fd71209b0e0a616e4d5aaea549a084d4276000808673ffffffffffffffffffffffffffffffffffffffff1673ffffffffffffffffffffffffffffffffffffffff168152602001908152602001600020600201546000808773ffffffffffffffffffffffffffffffffffffffff1673ffffffffffffffffffffffffffffffffffffffff1681526020019081526020016000206000015485604051808481526020018360001916600019168152602001828152602001935050505060405180910390a26001905092915050565b60006001828154811015156109e457fe5b9060005260206000200160009054906101000a900473ffffffffffffffffffffffffffffffffffffffff1690509190505600a165627a7a7230582013dba2316dd2175056c5e9982901ebbdd9d70643b22c18186a8dd8a8db5eb5ac0029",
  "source": "pragma solidity ^0.4.20;\r\n\r\ncontract DonationBlock {\r\n\r\n    struct DonationStruct {\r\n        bytes32 dimension;\r\n        uint metric;\r\n        uint index;\r\n    }\r\n\r\n    mapping(address => DonationStruct) private DonationStructs;\r\n    address[] private DonationIndex;\r\n\r\n    event LogNewDonation(address indexed donationAddress, uint index, bytes32 dimension, uint metric);\r\n    event LogUpdateDonation(address indexed donationAddress, uint index, bytes32 dimension, uint metric);\r\n\r\n    function isDonation(address donationAddress)\r\n    public \r\n    view\r\n    returns(bool isIndeed) \r\n    {\r\n        if(DonationIndex.length == 0) return false;\r\n        return (DonationIndex[DonationStructs[donationAddress].index] == donationAddress);\r\n    }\r\n\r\n    function insertDonation(\r\n        address donationAddress, \r\n        bytes32 dimension, \r\n        uint    metric) \r\n        public\r\n        returns(uint index)\r\n    {\r\n        if(isDonation(donationAddress)) revert(); \r\n        DonationStructs[donationAddress].dimension = dimension;\r\n        DonationStructs[donationAddress].metric = metric;\r\n        DonationStructs[donationAddress].index = DonationIndex.push(donationAddress)-1;\r\n        emit LogNewDonation(\r\n            donationAddress, \r\n            DonationStructs[donationAddress].index, \r\n            dimension, \r\n            metric);\r\n        return DonationIndex.length-1;\r\n    }\r\n\r\n    function getDonation(address donationAddress)\r\n        public \r\n        view\r\n        returns(bytes32 dimension, uint metric, uint index)\r\n    {\r\n        if(!isDonation(donationAddress)) revert(); \r\n        return(\r\n            DonationStructs[donationAddress].dimension, \r\n            DonationStructs[donationAddress].metric, \r\n            DonationStructs[donationAddress].index);\r\n    } \r\n\r\n    function updateDimension(address donationAddress, bytes32 dimension) \r\n    public\r\n    returns(bool success) \r\n    {\r\n        if(!isDonation(donationAddress)) revert(); \r\n        DonationStructs[donationAddress].dimension = dimension;\r\n        emit LogUpdateDonation(\r\n            donationAddress, \r\n            DonationStructs[donationAddress].index,\r\n            dimension, \r\n            DonationStructs[donationAddress].metric);\r\n        return true;\r\n    }\r\n\r\n    function updateMetric(address donationAddress, uint metric) \r\n    public\r\n    returns(bool success) \r\n    {\r\n        if(!isDonation(donationAddress)) revert(); \r\n        DonationStructs[donationAddress].metric = DonationStructs[donationAddress].metric + metric;\r\n        emit LogUpdateDonation(\r\n            donationAddress, \r\n            DonationStructs[donationAddress].index,\r\n            DonationStructs[donationAddress].dimension, \r\n            metric);\r\n        return true;\r\n    }\r\n\r\n    function getUserCount() \r\n    public\r\n    view\r\n    returns(uint count)\r\n    {\r\n        return DonationIndex.length;\r\n    }\r\n\r\n    function getUserAtIndex(uint index)\r\n    public\r\n    view\r\n    returns(address donationAddress)\r\n    {\r\n        return DonationIndex[index];\r\n    }\r\n\r\n}",
  "sourcePath": "D:\\Repos\\contract\\contracts\\DonationBlock.sol",
  "compiler": {
    "name": "solc",
    "version": "0.4.24+commit.e67f0147.Emscripten.clang"
  },
  "schemaVersion": "2.0.1",
  "updatedAt": "2018-07-25T14:49:31.785Z"
}