{
  "contractName": "EventBlock",
  "abi": [
    {
      "anonymous": false,
      "inputs": [
        {
          "indexed": true,
          "name": "eventAddress",
          "type": "address"
        },
        {
          "indexed": false,
          "name": "index",
          "type": "uint256"
        },
        {
          "indexed": false,
          "name": "title",
          "type": "string"
        },
        {
          "indexed": false,
          "name": "description",
          "type": "string"
        }
      ],
      "name": "LogNewEvent",
      "type": "event"
    },
    {
      "anonymous": false,
      "inputs": [
        {
          "indexed": true,
          "name": "eventAddress",
          "type": "address"
        },
        {
          "indexed": false,
          "name": "index",
          "type": "uint256"
        },
        {
          "indexed": false,
          "name": "title",
          "type": "string"
        },
        {
          "indexed": false,
          "name": "description",
          "type": "string"
        }
      ],
      "name": "LogUpdateEvent",
      "type": "event"
    },
    {
      "constant": true,
      "inputs": [
        {
          "name": "eventAddress",
          "type": "address"
        }
      ],
      "name": "isEvent",
      "outputs": [
        {
          "name": "isIndeed",
          "type": "bool"
        }
      ],
      "payable": false,
      "stateMutability": "view",
      "type": "function"
    },
    {
      "constant": false,
      "inputs": [
        {
          "name": "eventAddress",
          "type": "address"
        },
        {
          "name": "title",
          "type": "string"
        },
        {
          "name": "description",
          "type": "string"
        }
      ],
      "name": "insertEvent",
      "outputs": [
        {
          "name": "index",
          "type": "uint256"
        }
      ],
      "payable": false,
      "stateMutability": "nonpayable",
      "type": "function"
    },
    {
      "constant": true,
      "inputs": [
        {
          "name": "eventAddress",
          "type": "address"
        }
      ],
      "name": "getEvent",
      "outputs": [
        {
          "name": "title",
          "type": "string"
        },
        {
          "name": "description",
          "type": "string"
        },
        {
          "name": "index",
          "type": "uint256"
        }
      ],
      "payable": false,
      "stateMutability": "view",
      "type": "function"
    },
    {
      "constant": false,
      "inputs": [
        {
          "name": "eventAddress",
          "type": "address"
        },
        {
          "name": "title",
          "type": "string"
        }
      ],
      "name": "updateDimension",
      "outputs": [
        {
          "name": "success",
          "type": "bool"
        }
      ],
      "payable": false,
      "stateMutability": "nonpayable",
      "type": "function"
    },
    {
      "constant": false,
      "inputs": [
        {
          "name": "eventAddress",
          "type": "address"
        },
        {
          "name": "description",
          "type": "string"
        }
      ],
      "name": "updateDescription",
      "outputs": [
        {
          "name": "success",
          "type": "bool"
        }
      ],
      "payable": false,
      "stateMutability": "nonpayable",
      "type": "function"
    },
    {
      "constant": true,
      "inputs": [],
      "name": "getUserCount",
      "outputs": [
        {
          "name": "count",
          "type": "uint256"
        }
      ],
      "payable": false,
      "stateMutability": "view",
      "type": "function"
    },
    {
      "constant": true,
      "inputs": [
        {
          "name": "index",
          "type": "uint256"
        }
      ],
      "name": "getUserAtIndex",
      "outputs": [
        {
          "name": "eventAddress",
          "type": "address"
        }
      ],
      "payable": false,
      "stateMutability": "view",
      "type": "function"
    }
  ],
  "bytecode": "0x608060405234801561001057600080fd5b5061103a806100206000396000f300608060405260043610610083576000357c0100000000000000000000000000000000000000000000000000000000900463ffffffff1680638867fdfe146100885780638bbb2cf21461016b5780639206ac221461020c578063b5cb15f7146102ad578063e5face61146102d8578063f10b97b614610333578063ffcc7bbf14610462575b600080fd5b34801561009457600080fd5b50610155600480360381019080803573ffffffffffffffffffffffffffffffffffffffff169060200190929190803590602001908201803590602001908080601f0160208091040260200160405190810160405280939291908181526020018383808284378201915050505050509192919290803590602001908201803590602001908080601f01602080910402602001604051908101604052809392919081815260200183838082843782019150505050505091929192905050506104cf565b6040518082815260200191505060405180910390f35b34801561017757600080fd5b506101f2600480360381019080803573ffffffffffffffffffffffffffffffffffffffff169060200190929190803590602001908201803590602001908080601f01602080910402602001604051908101604052809392919081815260200183838082843782019150505050505091929192905050506107b6565b604051808215151515815260200191505060405180910390f35b34801561021857600080fd5b50610293600480360381019080803573ffffffffffffffffffffffffffffffffffffffff169060200190929190803590602001908201803590602001908080601f01602080910402602001604051908101604052809392919081815260200183838082843782019150505050505091929192905050506109f2565b604051808215151515815260200191505060405180910390f35b3480156102b957600080fd5b506102c2610c2e565b6040518082815260200191505060405180910390f35b3480156102e457600080fd5b50610319600480360381019080803573ffffffffffffffffffffffffffffffffffffffff169060200190929190505050610c3b565b604051808215151515815260200191505060405180910390f35b34801561033f57600080fd5b50610374600480360381019080803573ffffffffffffffffffffffffffffffffffffffff169060200190929190505050610d04565b604051808060200180602001848152602001838103835286818151815260200191508051906020019080838360005b838110156103be5780820151818401526020810190506103a3565b50505050905090810190601f1680156103eb5780820380516001836020036101000a031916815260200191505b50838103825285818151815260200191508051906020019080838360005b83811015610424578082015181840152602081019050610409565b50505050905090810190601f1680156104515780820380516001836020036101000a031916815260200191505b509550505050505060405180910390f35b34801561046e57600080fd5b5061048d60048036038101908080359060200190929190505050610f26565b604051808273ffffffffffffffffffffffffffffffffffffffff1673ffffffffffffffffffffffffffffffffffffffff16815260200191505060405180910390f35b60006104da84610c3b565b156104e457600080fd5b826000808673ffffffffffffffffffffffffffffffffffffffff1673ffffffffffffffffffffffffffffffffffffffff1681526020019081526020016000206000019080519060200190610539929190610f69565b50816000808673ffffffffffffffffffffffffffffffffffffffff1673ffffffffffffffffffffffffffffffffffffffff168152602001908152602001600020600101908051906020019061058f929190610f69565b506001808590806001815401808255809150509060018203906000526020600020016000909192909190916101000a81548173ffffffffffffffffffffffffffffffffffffffff021916908373ffffffffffffffffffffffffffffffffffffffff160217905550036000808673ffffffffffffffffffffffffffffffffffffffff1673ffffffffffffffffffffffffffffffffffffffff168152602001908152602001600020600201819055508373ffffffffffffffffffffffffffffffffffffffff167f408e6ff6793d6a5db6bcf995d9bb400a1ffae022e141e1750675725988297a636000808773ffffffffffffffffffffffffffffffffffffffff1673ffffffffffffffffffffffffffffffffffffffff168152602001908152602001600020600201548585604051808481526020018060200180602001838103835285818151815260200191508051906020019080838360005b838110156107025780820151818401526020810190506106e7565b50505050905090810190601f16801561072f5780820380516001836020036101000a031916815260200191505b50838103825284818151815260200191508051906020019080838360005b8381101561076857808201518184015260208101905061074d565b50505050905090810190601f1680156107955780820380516001836020036101000a031916815260200191505b509550505050505060405180910390a2600180805490500390509392505050565b60006107c183610c3b565b15156107cc57600080fd5b816000808573ffffffffffffffffffffffffffffffffffffffff1673ffffffffffffffffffffffffffffffffffffffff1681526020019081526020016000206001019080519060200190610821929190610f69565b508273ffffffffffffffffffffffffffffffffffffffff167f8de257eee392728509cf286b3fdb95dce3593a53ec045fdb820edf2af5f6d5936000808673ffffffffffffffffffffffffffffffffffffffff1673ffffffffffffffffffffffffffffffffffffffff168152602001908152602001600020600201546000808773ffffffffffffffffffffffffffffffffffffffff1673ffffffffffffffffffffffffffffffffffffffff168152602001908152602001600020600001856040518084815260200180602001806020018381038352858181546001816001161561010002031660029004815260200191508054600181600116156101000203166002900480156109715780601f1061094657610100808354040283529160200191610971565b820191906000526020600020905b81548152906001019060200180831161095457829003601f168201915b5050838103825284818151815260200191508051906020019080838360005b838110156109ab578082015181840152602081019050610990565b50505050905090810190601f1680156109d85780820380516001836020036101000a031916815260200191505b509550505050505060405180910390a26001905092915050565b60006109fd83610c3b565b1515610a0857600080fd5b816000808573ffffffffffffffffffffffffffffffffffffffff1673ffffffffffffffffffffffffffffffffffffffff1681526020019081526020016000206000019080519060200190610a5d929190610f69565b508273ffffffffffffffffffffffffffffffffffffffff167f8de257eee392728509cf286b3fdb95dce3593a53ec045fdb820edf2af5f6d5936000808673ffffffffffffffffffffffffffffffffffffffff1673ffffffffffffffffffffffffffffffffffffffff16815260200190815260200160002060020154846000808873ffffffffffffffffffffffffffffffffffffffff1673ffffffffffffffffffffffffffffffffffffffff168152602001908152602001600020600101604051808481526020018060200180602001838103835285818151815260200191508051906020019080838360005b83811015610b64578082015181840152602081019050610b49565b50505050905090810190601f168015610b915780820380516001836020036101000a031916815260200191505b50838103825284818154600181600116156101000203166002900481526020019150805460018160011615610100020316600290048015610c135780601f10610be857610100808354040283529160200191610c13565b820191906000526020600020905b815481529060010190602001808311610bf657829003601f168201915b50509550505050505060405180910390a26001905092915050565b6000600180549050905090565b6000806001805490501415610c535760009050610cff565b8173ffffffffffffffffffffffffffffffffffffffff1660016000808573ffffffffffffffffffffffffffffffffffffffff1673ffffffffffffffffffffffffffffffffffffffff16815260200190815260200160002060020154815481101515610cba57fe5b9060005260206000200160009054906101000a900473ffffffffffffffffffffffffffffffffffffffff1673ffffffffffffffffffffffffffffffffffffffff161490505b919050565b6060806000610d1284610c3b565b1515610d1d57600080fd5b6000808573ffffffffffffffffffffffffffffffffffffffff1673ffffffffffffffffffffffffffffffffffffffff1681526020019081526020016000206000016000808673ffffffffffffffffffffffffffffffffffffffff1673ffffffffffffffffffffffffffffffffffffffff1681526020019081526020016000206001016000808773ffffffffffffffffffffffffffffffffffffffff1673ffffffffffffffffffffffffffffffffffffffff16815260200190815260200160002060020154828054600181600116156101000203166002900480601f016020809104026020016040519081016040528092919081815260200182805460018160011615610100020316600290048015610e765780601f10610e4b57610100808354040283529160200191610e76565b820191906000526020600020905b815481529060010190602001808311610e5957829003601f168201915b50505050509250818054600181600116156101000203166002900480601f016020809104026020016040519081016040528092919081815260200182805460018160011615610100020316600290048015610f125780601f10610ee757610100808354040283529160200191610f12565b820191906000526020600020905b815481529060010190602001808311610ef557829003601f168201915b505050505091509250925092509193909250565b6000600182815481101515610f3757fe5b9060005260206000200160009054906101000a900473ffffffffffffffffffffffffffffffffffffffff169050919050565b828054600181600116156101000203166002900490600052602060002090601f016020900481019282601f10610faa57805160ff1916838001178555610fd8565b82800160010185558215610fd8579182015b82811115610fd7578251825591602001919060010190610fbc565b5b509050610fe59190610fe9565b5090565b61100b91905b80821115611007576000816000905550600101610fef565b5090565b905600a165627a7a72305820d481581bca257702aac06366f1046b416c9011ea710ecc496afd731edceaea600029",
  "source": "pragma solidity ^0.4.24;\r\n\r\ncontract EventBlock {\r\n\r\n    struct EventStruct {\r\n        string title;\r\n        string description;\r\n        uint index;\r\n    }\r\n\r\n    mapping(address => EventStruct) private EventStructs;\r\n    address[] private EventIndex;\r\n\r\n    event LogNewEvent(address indexed eventAddress, uint index, string title, string description);\r\n    event LogUpdateEvent(address indexed eventAddress, uint index, string title, string description);\r\n\r\n    function isEvent(address eventAddress)\r\n    public \r\n    view\r\n    returns(bool isIndeed) \r\n    {\r\n        if(EventIndex.length == 0) return false;\r\n        return (EventIndex[EventStructs[eventAddress].index] == eventAddress);\r\n    }\r\n\r\n    function insertEvent(\r\n        address eventAddress, \r\n        string title, \r\n        string description) \r\n        public\r\n        returns(uint index)\r\n    {\r\n        if(isEvent(eventAddress)) revert(); \r\n        EventStructs[eventAddress].title = title;\r\n        EventStructs[eventAddress].description = description;\r\n        EventStructs[eventAddress].index = EventIndex.push(eventAddress)-1;\r\n        emit LogNewEvent(\r\n            eventAddress, \r\n            EventStructs[eventAddress].index, \r\n            title, \r\n            description);\r\n        return EventIndex.length-1;\r\n    }\r\n\r\n    function getEvent(address eventAddress)\r\n        public \r\n        view\r\n        returns(string title, string description, uint index)\r\n    {\r\n        if(!isEvent(eventAddress)) revert(); \r\n        return(\r\n            EventStructs[eventAddress].title, \r\n            EventStructs[eventAddress].description, \r\n            EventStructs[eventAddress].index);\r\n    } \r\n\r\n    function updateDimension(address eventAddress, string title) \r\n    public\r\n    returns(bool success) \r\n    {\r\n        if(!isEvent(eventAddress)) revert(); \r\n        EventStructs[eventAddress].title = title;\r\n        emit LogUpdateEvent(\r\n            eventAddress, \r\n            EventStructs[eventAddress].index,\r\n            title, \r\n            EventStructs[eventAddress].description);\r\n        return true;\r\n    }\r\n\r\n    function updateDescription(address eventAddress, string description) \r\n    public\r\n    returns(bool success) \r\n    {\r\n        if(!isEvent(eventAddress)) revert(); \r\n        EventStructs[eventAddress].description = description;\r\n        emit LogUpdateEvent(\r\n            eventAddress, \r\n            EventStructs[eventAddress].index,\r\n            EventStructs[eventAddress].title, \r\n            description);\r\n        return true;\r\n    }\r\n\r\n    function getUserCount() \r\n    public\r\n    view\r\n    returns(uint count)\r\n    {\r\n        return EventIndex.length;\r\n    }\r\n\r\n    function getUserAtIndex(uint index)\r\n    public\r\n    view\r\n    returns(address eventAddress)\r\n    {\r\n        return EventIndex[index];\r\n    }\r\n\r\n}",
  "sourcePath": "D:\\Repos\\contract\\contracts\\EventBlock.sol",
  "compiler": {
    "name": "solc",
    "version": "0.4.24+commit.e67f0147.Emscripten.clang"
  },
  "schemaVersion": "2.0.1",
  "updatedAt": "2018-07-25T14:49:31.501Z"
}