{
  "contractName": "VolunteerBlock",
  "abi": [
    {
      "anonymous": false,
      "inputs": [
        {
          "indexed": true,
          "name": "volunteerAddress",
          "type": "address"
        },
        {
          "indexed": false,
          "name": "index",
          "type": "uint256"
        },
        {
          "indexed": false,
          "name": "dimension",
          "type": "bytes32"
        },
        {
          "indexed": false,
          "name": "metric",
          "type": "uint256"
        }
      ],
      "name": "LogNewVolunteer",
      "type": "event"
    },
    {
      "anonymous": false,
      "inputs": [
        {
          "indexed": true,
          "name": "volunteerAddress",
          "type": "address"
        },
        {
          "indexed": false,
          "name": "index",
          "type": "uint256"
        },
        {
          "indexed": false,
          "name": "dimension",
          "type": "bytes32"
        },
        {
          "indexed": false,
          "name": "metric",
          "type": "uint256"
        }
      ],
      "name": "LogUpdateVolunteer",
      "type": "event"
    },
    {
      "constant": true,
      "inputs": [
        {
          "name": "volunteerAddress",
          "type": "address"
        }
      ],
      "name": "isVolunteer",
      "outputs": [
        {
          "name": "isIndeed",
          "type": "bool"
        }
      ],
      "payable": false,
      "stateMutability": "view",
      "type": "function"
    },
    {
      "constant": false,
      "inputs": [
        {
          "name": "volunteerAddress",
          "type": "address"
        },
        {
          "name": "dimension",
          "type": "bytes32"
        },
        {
          "name": "metric",
          "type": "uint256"
        }
      ],
      "name": "insertVolunteer",
      "outputs": [
        {
          "name": "index",
          "type": "uint256"
        }
      ],
      "payable": false,
      "stateMutability": "nonpayable",
      "type": "function"
    },
    {
      "constant": true,
      "inputs": [
        {
          "name": "volunteerAddress",
          "type": "address"
        }
      ],
      "name": "getVolunteer",
      "outputs": [
        {
          "name": "dimension",
          "type": "bytes32"
        },
        {
          "name": "metric",
          "type": "uint256"
        },
        {
          "name": "index",
          "type": "uint256"
        }
      ],
      "payable": false,
      "stateMutability": "view",
      "type": "function"
    },
    {
      "constant": false,
      "inputs": [
        {
          "name": "volunteerAddress",
          "type": "address"
        },
        {
          "name": "dimension",
          "type": "bytes32"
        }
      ],
      "name": "updateDimension",
      "outputs": [
        {
          "name": "success",
          "type": "bool"
        }
      ],
      "payable": false,
      "stateMutability": "nonpayable",
      "type": "function"
    },
    {
      "constant": false,
      "inputs": [
        {
          "name": "volunteerAddress",
          "type": "address"
        },
        {
          "name": "metric",
          "type": "uint256"
        }
      ],
      "name": "updateMetric",
      "outputs": [
        {
          "name": "success",
          "type": "bool"
        }
      ],
      "payable": false,
      "stateMutability": "nonpayable",
      "type": "function"
    },
    {
      "constant": true,
      "inputs": [],
      "name": "getUserCount",
      "outputs": [
        {
          "name": "count",
          "type": "uint256"
        }
      ],
      "payable": false,
      "stateMutability": "view",
      "type": "function"
    },
    {
      "constant": true,
      "inputs": [
        {
          "name": "index",
          "type": "uint256"
        }
      ],
      "name": "getUserAtIndex",
      "outputs": [
        {
          "name": "volunteerAddress",
          "type": "address"
        }
      ],
      "payable": false,
      "stateMutability": "view",
      "type": "function"
    }
  ],
  "bytecode": "0x608060405234801561001057600080fd5b50610a42806100206000396000f300608060405260043610610083576000357c0100000000000000000000000000000000000000000000000000000000900463ffffffff16806356f52ab614610088578063624abd1c146100f1578063766c3ca51461015e57806390755c3b146101cd578063b5cb15f714610228578063b6a1edb314610253578063ffcc7bbf146102b8575b600080fd5b34801561009457600080fd5b506100d7600480360381019080803573ffffffffffffffffffffffffffffffffffffffff1690602001909291908035600019169060200190929190505050610325565b604051808215151515815260200191505060405180910390f35b3480156100fd57600080fd5b50610132600480360381019080803573ffffffffffffffffffffffffffffffffffffffff169060200190929190505050610477565b604051808460001916600019168152602001838152602001828152602001935050505060405180910390f35b34801561016a57600080fd5b506101b7600480360381019080803573ffffffffffffffffffffffffffffffffffffffff169060200190929190803560001916906020019092919080359060200190929190505050610563565b6040518082815260200191505060405180910390f35b3480156101d957600080fd5b5061020e600480360381019080803573ffffffffffffffffffffffffffffffffffffffff16906020019092919050505061076c565b604051808215151515815260200191505060405180910390f35b34801561023457600080fd5b5061023d610835565b6040518082815260200191505060405180910390f35b34801561025f57600080fd5b5061029e600480360381019080803573ffffffffffffffffffffffffffffffffffffffff16906020019092919080359060200190929190505050610842565b604051808215151515815260200191505060405180910390f35b3480156102c457600080fd5b506102e3600480360381019080803590602001909291905050506109d3565b604051808273ffffffffffffffffffffffffffffffffffffffff1673ffffffffffffffffffffffffffffffffffffffff16815260200191505060405180910390f35b60006103308361076c565b151561033b57600080fd5b816000808573ffffffffffffffffffffffffffffffffffffffff1673ffffffffffffffffffffffffffffffffffffffff16815260200190815260200160002060000181600019169055508273ffffffffffffffffffffffffffffffffffffffff167f2c35d5b8ce404ab6eb1e7cc30c6882b5819b0241dbbe654feb3c05c24b2dd65e6000808673ffffffffffffffffffffffffffffffffffffffff1673ffffffffffffffffffffffffffffffffffffffff16815260200190815260200160002060020154846000808873ffffffffffffffffffffffffffffffffffffffff1673ffffffffffffffffffffffffffffffffffffffff16815260200190815260200160002060010154604051808481526020018360001916600019168152602001828152602001935050505060405180910390a26001905092915050565b60008060006104858461076c565b151561049057600080fd5b6000808573ffffffffffffffffffffffffffffffffffffffff1673ffffffffffffffffffffffffffffffffffffffff168152602001908152602001600020600001546000808673ffffffffffffffffffffffffffffffffffffffff1673ffffffffffffffffffffffffffffffffffffffff168152602001908152602001600020600101546000808773ffffffffffffffffffffffffffffffffffffffff1673ffffffffffffffffffffffffffffffffffffffff168152602001908152602001600020600201549250925092509193909250565b600061056e8461076c565b1561057857600080fd5b826000808673ffffffffffffffffffffffffffffffffffffffff1673ffffffffffffffffffffffffffffffffffffffff1681526020019081526020016000206000018160001916905550816000808673ffffffffffffffffffffffffffffffffffffffff1673ffffffffffffffffffffffffffffffffffffffff168152602001908152602001600020600101819055506001808590806001815401808255809150509060018203906000526020600020016000909192909190916101000a81548173ffffffffffffffffffffffffffffffffffffffff021916908373ffffffffffffffffffffffffffffffffffffffff160217905550036000808673ffffffffffffffffffffffffffffffffffffffff1673ffffffffffffffffffffffffffffffffffffffff168152602001908152602001600020600201819055508373ffffffffffffffffffffffffffffffffffffffff167f4f335eaca0e563975ac55349eb72589809b9c78b2c0e238f729e6fa116efbdf06000808773ffffffffffffffffffffffffffffffffffffffff1673ffffffffffffffffffffffffffffffffffffffff168152602001908152602001600020600201548585604051808481526020018360001916600019168152602001828152602001935050505060405180910390a2600180805490500390509392505050565b60008060018054905014156107845760009050610830565b8173ffffffffffffffffffffffffffffffffffffffff1660016000808573ffffffffffffffffffffffffffffffffffffffff1673ffffffffffffffffffffffffffffffffffffffff168152602001908152602001600020600201548154811015156107eb57fe5b9060005260206000200160009054906101000a900473ffffffffffffffffffffffffffffffffffffffff1673ffffffffffffffffffffffffffffffffffffffff161490505b919050565b6000600180549050905090565b600061084d8361076c565b151561085857600080fd5b816000808573ffffffffffffffffffffffffffffffffffffffff1673ffffffffffffffffffffffffffffffffffffffff16815260200190815260200160002060010154016000808573ffffffffffffffffffffffffffffffffffffffff1673ffffffffffffffffffffffffffffffffffffffff168152602001908152602001600020600101819055508273ffffffffffffffffffffffffffffffffffffffff167f2c35d5b8ce404ab6eb1e7cc30c6882b5819b0241dbbe654feb3c05c24b2dd65e6000808673ffffffffffffffffffffffffffffffffffffffff1673ffffffffffffffffffffffffffffffffffffffff168152602001908152602001600020600201546000808773ffffffffffffffffffffffffffffffffffffffff1673ffffffffffffffffffffffffffffffffffffffff1681526020019081526020016000206000015485604051808481526020018360001916600019168152602001828152602001935050505060405180910390a26001905092915050565b60006001828154811015156109e457fe5b9060005260206000200160009054906101000a900473ffffffffffffffffffffffffffffffffffffffff1690509190505600a165627a7a72305820d702d30fcf346599f29b3a574f78011ab209305cad863b6717c2c0c8c9091e4a0029",
  "source": "pragma solidity ^0.4.20;\r\n\r\ncontract VolunteerBlock {\r\n\r\n    struct VolunteerStruct {\r\n        bytes32 dimension;\r\n        uint metric;\r\n        uint index;\r\n    }\r\n\r\n    mapping(address => VolunteerStruct) private VolunteerStructs;\r\n    address[] private VolunteerIndex;\r\n\r\n    event LogNewVolunteer(address indexed volunteerAddress, uint index, bytes32 dimension, uint metric);\r\n    event LogUpdateVolunteer(address indexed volunteerAddress, uint index, bytes32 dimension, uint metric);\r\n\r\n    function isVolunteer(address volunteerAddress)\r\n    public \r\n    view\r\n    returns(bool isIndeed) \r\n    {\r\n        if(VolunteerIndex.length == 0) return false;\r\n        return (VolunteerIndex[VolunteerStructs[volunteerAddress].index] == volunteerAddress);\r\n    }\r\n\r\n    function insertVolunteer(\r\n        address volunteerAddress, \r\n        bytes32 dimension, \r\n        uint    metric) \r\n        public\r\n        returns(uint index)\r\n    {\r\n        if(isVolunteer(volunteerAddress)) revert(); \r\n        VolunteerStructs[volunteerAddress].dimension = dimension;\r\n        VolunteerStructs[volunteerAddress].metric = metric;\r\n        VolunteerStructs[volunteerAddress].index = VolunteerIndex.push(volunteerAddress)-1;\r\n        emit LogNewVolunteer(\r\n            volunteerAddress, \r\n            VolunteerStructs[volunteerAddress].index, \r\n            dimension, \r\n            metric);\r\n        return VolunteerIndex.length-1;\r\n    }\r\n\r\n    function getVolunteer(address volunteerAddress)\r\n        public \r\n        view\r\n        returns(bytes32 dimension, uint metric, uint index)\r\n    {\r\n        if(!isVolunteer(volunteerAddress)) revert(); \r\n        return(\r\n            VolunteerStructs[volunteerAddress].dimension, \r\n            VolunteerStructs[volunteerAddress].metric, \r\n            VolunteerStructs[volunteerAddress].index);\r\n    } \r\n\r\n    function updateDimension(address volunteerAddress, bytes32 dimension) \r\n    public\r\n    returns(bool success) \r\n    {\r\n        if(!isVolunteer(volunteerAddress)) revert(); \r\n        VolunteerStructs[volunteerAddress].dimension = dimension;\r\n        emit LogUpdateVolunteer(\r\n            volunteerAddress, \r\n            VolunteerStructs[volunteerAddress].index,\r\n            dimension, \r\n            VolunteerStructs[volunteerAddress].metric);\r\n        return true;\r\n    }\r\n\r\n    function updateMetric(address volunteerAddress, uint metric) \r\n    public\r\n    returns(bool success) \r\n    {\r\n        if(!isVolunteer(volunteerAddress)) revert(); \r\n        VolunteerStructs[volunteerAddress].metric = VolunteerStructs[volunteerAddress].metric + metric;\r\n        emit LogUpdateVolunteer(\r\n            volunteerAddress, \r\n            VolunteerStructs[volunteerAddress].index,\r\n            VolunteerStructs[volunteerAddress].dimension, \r\n            metric);\r\n        return true;\r\n    }\r\n\r\n    function getUserCount() \r\n    public\r\n    view\r\n    returns(uint count)\r\n    {\r\n        return VolunteerIndex.length;\r\n    }\r\n\r\n    function getUserAtIndex(uint index)\r\n    public\r\n    view\r\n    returns(address volunteerAddress)\r\n    {\r\n        return VolunteerIndex[index];\r\n    }\r\n\r\n}",
  "sourcePath": "D:\\Repos\\contract\\contracts\\VolunteerBlock.sol",
  "compiler": {
    "name": "solc",
    "version": "0.4.24+commit.e67f0147.Emscripten.clang"
  },
  "schemaVersion": "2.0.1",
  "updatedAt": "2018-07-25T14:49:31.148Z"
}